:1000000019C028C027C026C025C024C023C022C0D4
:1000100021C0FEC01FC01EC01DC01CC01BC01AC016
:1000200019C018C017C016C015C014C013C012C024
:1000300011C010C011241FBECFEFCDBFDFE3DEBF64
:100040002FE3A0E0BFE301C01D92AA30B207E1F7A1
:100050003AD1B4C1D5CF90E0FC01EE52FC475081BB
:100060005F3F09F444C0FC01E054FC472081222397
:10007000B9F02031A9F4FC01EA53FC474081473034
:10008000F9F0433008F04F5F7091010A21E030E051
:1000900001C0220F4A95EAF7209527232093010AF1
:1000A000FC01E453FC47E08120E2E29FF0011124CF
:1000B000FC5F2081252341F0611104C0568308951F
:1000C00040E0E2CF558308958A539C47DC018C9130
:1000D000309771F08F3F61F07096E80FF11D9FB778
:1000E000F8948081611107C0877F80839FBF089546
:1000F000F0E0E0E0F4CF8860F8CFCF93DF9390E0BA
:10010000FC01EE52FC4720812F3F61F0FC01E453DB
:10011000FC47E08130E2E39FF0011124FC5F613095
:1001200021F42183DF91CF9108958A539C47EC01FC
:10013000A881AF3F69F0CF014096A80FB92FB11D3C
:100140009FB7F89422838C9188608C939FBFEACFED
:10015000B0E0A0E0F5CF0F931F939FB7F8942091E4
:10016000063F3091073F4091083F5091093F609111
:10017000210AEEEFE61B80910B0A81FF06C0E7FD26
:1001800004C02E5F3F4F4F4F5F4F9FBFACEFB3E0B8
:10019000FFD0AB01BC018E2F90E0B0E0A0E022E0E8
:1001A000880F991FAA1FBB1F2A95D1F78A019B01AF
:1001B000080F191F2A1F3B1FC901B8011F910F917A
:1001C0000895CF92DF92EF92FF92C5DF6B017C0121
:1001D00020E2C20E21EAD21E27E0E21EF11C80E2DC
:1001E000C81681EAD80687E0E806F10430F4B3DFE8
:1001F000C616D706E806F906D0F3ADDF6C157D0507
:100200008E059F05D0F3FF90EF90DF90CF9008957B
:100210001F920F920FB60F9211242F933F934F937B
:100220005F936F938F939F93AF93BF938091023FA0
:100230009091033FA091043FB091053F4091003F52
:100240005091013F9A012C5E3F4F283E63E03607F4
:1002500098F50196A11DB11D2093003F3093013FF9
:100260008093023F9093033FA093043FB093053FD8
:100270008091063F9091073FA091083FB091093FC0
:100280000196A11DB11D8093063F9093073FA09357
:10029000083FB093093F82E080930B0ABF91AF9172
:1002A0009F918F916F915F914F913F912F910F90FF
:1002B0000FBE0F901F9018959A01245D334002964F
:1002C000A11DB11DC9CF88ED93E084BF909361005B
:1002D00081E5809302068EE08093050680E280939C
:1002E00003068091000681608093000681E0809380
:1002F00002028093030A8EEF8093260A8093270AD6
:1003000080E88093280A80932A0A80932C0A80939D
:10031000290A80932B0A80932D0A89E08093000A92
:1003200080910A0A826080930A0A789461E080E0F2
:10033000E4DE62E084E0E1DE62E083E0DEDE62E0F3
:1003400082E0DBDE61E081E0D8DE61E085E0D5DEE1
:1003500080915000897F846080935000809150008C
:1003600081608093500061E080E075DE61E081E0B3
:1003700072DE61E085E06FDE24DF60E080E06BDE4E
:1003800060E081E068DE60E085E065DE1ADFEBCFEB
:1003900009D0A59F900DB49F900DA49F800D911D35
:1003A00011240895A29FB001B39FC001A39F01D063
:1003B000B29F700D811D1124911D0895F894FFCFF7
:1003C00000101010100006070102030000000000DA
:0803D000000040800204080156
:00000001FF
